:020000040800F2
:1000000020070020CD0100086B160008111500081C
:1000100069160008E1030008F3180008000000005A
:100020000000000000000000000000006F16000843
:10003000E3030008000000006D160008F916000830
:10004000E7010008E7010008E7010008E7010008F0
:10005000E7010008E7010008E7010008E7010008E0
:10006000E7010008E7010008E7010008E7010008D0
:10007000E7010008E7010008E7010008E7010008C0
:10008000E7010008E7010008E7010008E7010008B0
:10009000E7010008E7010008E7010008E7010008A0
:1000A000E7010008E7010008E7010008E701000890
:1000B000E7010008E7010008E7010008E701000880
:1000C000E7010008E7010008E7010008E701000870
:1000D000E7010008E7010008E7010008E701000860
:1000E000E7010008E7010008E7010008E701000850
:1000F000E7010008E7010008E7010008E701000840
:10010000E7010008E7010008E7010008E70100082F
:10011000E7010008E7010008E7010008E70100081F
:10012000E7010008E7010008E7010008E70100080F
:1001300000F002F800F03AF80AA090E8000C8244BF
:100140008344AAF10107DA4501D100F02FF8AFF29C
:10015000090EBAE80F0013F0010F18BFFB1A43F0A5
:100160000103184790180000B0180000103A24BF8F
:1001700078C878C1FAD8520724BF30C830C144BF0C
:1001800004680C607047000000230024002500264E
:10019000103A28BF78C1FBD8520728BF30C148BFEA
:1001A0000B6070471FB51FBD10B510BD00F058F8AB
:1001B0001146FFF7F7FF01F0ADFB00F076F803B44E
:1001C000FFF7F2FF03BC00F07DF80000094880470C
:1001D00009480047FEE7FEE7FEE7FEE7FEE7FEE729
:1001E000FEE7FEE7FEE7FEE704480549054A064B41
:1001F0007047000077170008310100082001002037
:100200002007002020030020200300204FF00002E0
:1002100000B5134694469646203922BFA0E80C50FC
:10022000A0E80C50B1F12001BFF4F7AF090728BFD7
:10023000A0E80C5048BF0CC05DF804EB890028BF53
:1002400040F8042B08BF704748BF20F8022B11F07C
:10025000804F18BF00F8012B7047704770477047F8
:10026000754600F02BF8AE4605006946534620F06F
:100270000700854618B020B5FFF7B6FFBDE820405F
:100280004FF000064FF000074FF000084FF0000B52
:1002900021F00701AC46ACE8C009ACE8C009ACE805
:1002A000C009ACE8C0098D46704710B50446AFF3ED
:1002B00000802046BDE81040FFF781BF004870472E
:1002C000BC00002001491820ABBEFEE7260002005A
:1002D0007047000070B5044600688168C943C907CB
:1002E00017D1816821F00101816000F075FC05469D
:1002F0000AE000BF00F070FC401B022804D920680F
:100300008068C043C00706D020688068C043C0072B
:10031000F0D0002070BDA06A40F01000A062E06A3A
:1003200040F00100E062012070BD0000F8B5002639
:100330000446009600688168C943C9072DD08168CA
:1003400041F001018160164816490068B0FBF1F0E8
:1003500000E0401E00900028FBD100F03DFC054667
:1003600016E000BF00F038FC401B022810D92068BE
:100370008068C043C0070BD0A06A40F01000A062A4
:10038000E06A40F00100E06284F824600120F8BDDA
:1003900020688068C043C007E4D10020F8BD000099
:1003A0002400002040420F000EB569460090012055
:1003B000019005200290094800F082F808B100F091
:1003C00011F8064800F07AFA4FF0FF31034800F0C8
:1003D000D7F9024800F0F2F880B20EBD44000020C8
:1003E000FEE7704772B6FEE7F8B5002504460095B3
:1003F00090F8240001280BD0012084F82400204626
:10040000FFF768FF2046FFF791FF060002D050E09B
:100410000220F8BDA06A20F4885040F00200A062DB
:10042000022000F069FC25490968B1FBF0F04000AA
:1004300000E0401E00900028FBD12068816841F058
:100440000801816000F0C8FB074608E000F0C4FB2B
:10045000C01B0A2803D920688068000715D42068CB
:1004600080680007F2D42068816841F0040181604F
:1004700000F0B2FB074612E000F0AEFBC01B0A28FA
:100480000DD920688068400709D5A06A20F00200D5
:1004900040F01000A06284F824500120F8BD2068CC
:1004A00080684007E8D4A06A20F0020040F0010014
:1004B000A06284F824503046F8BD000024000020DB
:1004C000F8B50024009490F824202546012A12D083
:1004D000012280F824204A681F23072A0DD20668CB
:1004E000776B521E02EB820293409F430B6893404E
:1004F0001F43776319E00220F8BD06680D2A0AD26F
:10050000376BD21F02EB820293409F430B689340EC
:100510001F43376309E0F76A0D3A02EB820293400A
:100520009F430B6893401F43F7620A6807230668DE
:100530000A2A0AD3F7680A3A02EB420293409F4321
:100540008B6893401F43F76008E0376902EB420273
:1005500093409F438B6893401F4337610A68102A7A
:1005600001D0112A20D1124B02689A4217D1936808
:100570001B0219D4936843F400039360096810299F
:1005800012D10C490C4A0968B1FBF2F101EB81016F
:10059000490000E0491E00910029FBD104E0816A76
:1005A00041F020018162012480F824502046F8BDEA
:1005B000002401402400002040420F000068C06C6D
:1005C000704700002DE9F04104004FF000057FD096
:1005D000A06A002628B9E66284F82460204600F06C
:1005E00081F82046FFF776FEA16AC90600D420B143
:1005F000A06A40F01000A0626AE0A16A21F488516C
:1006000041F00201A162334923688B42E16904D1C0
:10061000B1F5402F01D14FF40021277B4FF4807CAE
:1006200041EA470261680A43A168614508D001298F
:1006300006D0002194F814E0BEF1010F02D00AE0C8
:100640006146F7E7C7B1A76A47F02007A762E76AE4
:1006500047F00107E7625F6827F469470F435F606F
:10066000236899681C4F394011439960A16861451E
:100670000BD0012909D00CE0DFF860E0A7690EEB90
:1006800047370F4347F40061E5E7218A0D05A5F5DB
:1006900080152168CB6A23F470032B43CB62216859
:1006A00089680F4B1940914208D1E662A16A21F096
:1006B000020141F00101A162BDE8F081A06A20F0D1
:1006C000020040F01000A062E06A40F00100E06229
:1006D0000120F1E7003C0140FDF7E1FF00E0FFFFF2
:1006E000FE0E1FFF10B586B000210091019102910E
:1006F000039100681D49884235D11D48816941F444
:1007000000718161816901F400710491816941F096
:1007100010018161816901F010010491816941F04A
:1007200004018161816901F004010491816941F052
:10073000080181618069032400F0080004903F20D3
:10074000CDE9000469460B4800F044F9FF20CDE9EB
:1007500000046946084800F03DF9009469460748DE
:10076000019400F037F906B010BD000000240140EC
:10077000001002400010014000080140000C014040
:100780002DE9F84300270D460446009700F024FAAF
:10079000804620688168C90508D5A06A40F020001D
:1007A000A06284F824700120BDE8F8834168C9057F
:1007B00003D4C06A10F4700F2AD0022000F09CFA13
:1007C0003B490968B1FBF0F62068036939490B42DF
:1007D0004FEA61014FEAA1121FD1C3684FEA611CC1
:1007E00013EA0C0F19D103690B4225D1C0681042DE
:1007F00022D1142023E0681C0AD02DB100F0ECF9BE
:10080000A0EB0800A84203D920680068800725D51E
:10081000206800688007EED52DE003690B4202D105
:10082000C168114206D0026923490A4206D1C06854
:10083000084203D1542002E0292000E0FC20464376
:10084000009816E0681C11D02DB100F0C5F9A0EB9E
:100850000800A8420AD90098B04207D2A06A40F026
:100860000400A06284F8247003209DE70098401CD7
:100870000090B042E6D321686FF012000860A06AD1
:1008800040F40070A06220688068C0F342400728EE
:100890000CD1207B50B9A06A20F48070A062A06ABD
:1008A000C00403D4A06A40F00100A06200207BE7EE
:1008B00024000020244992244992240070B5044663
:1008C00090F8240001280DD0012084F8240020464F
:1008D000FFF72CFD02004FF0000005D084F8240043
:1008E000104670BD022070BDA16A40F201239943F9
:1008F00041F48071A1621F4D23681F49AB4218D19A
:100900000E6816F4702F14D0A66A46F48016A662FC
:100910000E68760505D5A66A26F4005646F480567C
:10092000A662A66AF6040AD5E66A26F00606E6621C
:1009300006E0A66A26F48016A6625E68E9E7E06231
:1009400084F824006FF00200186020688368C3F305
:100950004243072B05D1A84208D1096811F4702F32
:1009600004D0816841F480118160B9E7816841F465
:10097000A001F9E7002801400424014010B5044615
:1009800090F82400012807D0012084F82400204694
:10099000FFF7A0FC10B107E0022010BDA16A21F40E
:1009A000885141F00101A162002184F8241010BD9A
:1009B00070B5044600F010F90546601C02D00448EA
:1009C0000078044400F008F9401BA042FAD370BD3F
:1009D000180000202DE9F84FDFF8C8910024A9F194
:1009E000040B23460F2709F1040AABF1040ED1E0F2
:1009F0000125A54006EA0502AA4276D1DFF8A8C182
:100A00004E68A6EB0C0866452BD00DDC032E34D0C7
:100A100005DC36B3012E19D0022E2FD11BE0112E8A
:100A200016D0122E2AD119E0B8F5881F19D006DC8D
:100A3000B8F5803F15D0B8F5801F1FD111E0B8F58B
:100A4000001F0ED0B8F5041F18D10AE0CB6815E0DE
:100A5000CB681B1D12E0CB6808330FE0CB680C336A
:100A60000CE08B682BB1012B4FF0080303D04561DC
:100A700004E0042302E0056100E00023FF2A01D81E
:100A8000064601E000F104064FEA840501D9A5F10C
:100A90002005D6F8008007FA05FC28EA0C0803FABE
:100AA00005F548EA0508C6F800804D68ED0070D5E8
:100AB0003E4DAE6946F00106AE61AD6924F0030615
:100AC00005F0010500953A4D06EB050CDCF80850E1
:100AD000A607360F07FA06F825EA0805DFF8D480DE
:100AE000404503D14FF0000825E052E0DFF8C88010
:100AF000404502D14FF001081DE0DFF8C0804045BD
:100B000002D14FF0020816E0DFF8B480404502D170
:100B10004FF003080FE0DFF8AC80404502D14FF002
:100B2000040808E0DFF8A080404502D14FF0050836
:100B300001E04FF0060808FA06F848EA0508CCF884
:100B400008804D68D9F80060ED024D4601D5164386
:100B500000E096432E604D68DAF80060AD0255461D
:100B600001D5164300E096432E604D68DBF8006027
:100B7000AD035D4601D5164300E096432E604D68F7
:100B8000DEF80060ED03754601D5164300E096439C
:100B90002E60641C0A681646E2407FF429AFBDE867
:100BA000F88F0000080401400000111000100240FE
:100BB0000000014000080140000C0140001001400D
:100BC0000014014000180140001C01400AB10161FD
:100BD00070470904FBE70000014880687047000087
:100BE0001800002002488168027811448160704733
:100BF00018000020074810B5016841F0100101609D
:100C0000032000F067F80F2000F006F800F024F849
:100C1000002010BD0020024070B50D4D04464FF479
:100C20007A712878B1FBF0F00A490968B1FBF0F05D
:100C300000F0A0FB48B9102C07D200222146501E1C
:100C400000F028F800206C6070BD012070BD00002D
:100C500018000020240000200C4808B5816941F0EC
:100C600001018161816901F001010091C16941F0D7
:100C70008051C161C06900F0805000900448416813
:100C800021F0E06141F00071416008BD00100240B8
:100C900000000140F0B40E4B1B680C46C3F3022366
:100CA000C3F10705042D00D90425191D072901D218
:100CB000002300E0DB1E012606FA05F1491E214053
:100CC00099409E40761E16403143F0BC00F012BEA3
:100CD0000CED00E0064900F0070208684FF6FF033C
:100CE000184040EA0220034A1043086070470000A1
:100CF0000CED00E00000FA0510B501460020284C7C
:100D000004292FD00BDC012930D0022929D100F091
:100D10006BF96168C1F38131491C49001FE0082962
:100D200020D010291DD161682268D20119D51D4833
:100D3000C1F38342C903805C0AD56168194AC1F3D3
:100D40004041921E515C184AB2FBF1F1484301E068
:100D5000164948436168490203D440000321B0FBAF
:100D6000F1F010BDBDE8104000F04EB9226AC2F3A8
:100D70000121012903D1920701D5C80310BD022921
:100D800005D1626A920702D549F6404010BD032999
:100D9000FCD121688903F9D54FF2244010BD000031
:100DA00000100240CC19000800127A0000093D0032
:100DB0002DE9F84305460078354CC00754D0E0696A
:100DC0000026C00008D4E06940F08050E061E0698E
:100DD000012600F0805000902E480168C90512D409
:100DE0000168804641F480710160FFF7F5FE074617
:100DF00005E000BFFFF7F0FEC01B642823D8D8F839
:100E00000000C005F6D5206A10F4407021D0A988F2
:100E100001F4407181421CD0206A1F49012220F454
:100E200040700A6000220A602062C00711D0FFF7FC
:100E3000D3FE074641F2883808E000BFFFF7CCFE3A
:100E4000C11B414502D90320BDE8F883206A800711
:100E5000F4D5206A696820F44070084320621EB10E
:100E6000E06920F08050E0612878800705D560684F
:100E7000A96820F44040084360602878C00605D582
:100E80006068696920F48000084360600020DBE747
:100E90000010024000700040400442422DE9F0473B
:100EA0000F46050061D0434E306800F00700B8429D
:100EB00009D2306820F0070038433060306800F015
:100EC0000700B84251D128683B4C810712D5400732
:100ED00003D5606840F4E06060602878000703D5BF
:100EE000606840F4605060606068A96820F0F000BD
:100EF000084360602878C00728D06868012810D0AF
:100F00002168022810D0890700292EDA616821F0B3
:100F1000030101436160FFF75FFE804641F28839BB
:100F20000DE021688903EFE78901EDE7FFF754FE43
:100F3000A0EB0801494502D90320BDE8F0876068AD
:100F4000696800F00C00B0EB810FEFD1306800F061
:100F50000700B8420BD9306820F0070038433060F2
:100F6000306800F00700B84201D00120E5E728789A
:100F7000400705D56068E96820F4E06008436060D8
:100F80002878000706D56068296920F4605040EA97
:100F9000C100606000F038F86168084AC1F30311CD
:100FA000515CC8400649086006480068FFF734FEF7
:100FB0000020C2E70020024000100240DC190008B7
:100FC000240000201C0000200448054900684968EE
:100FD000044AC1F30221515CC8407047240000203C
:100FE00000100240EC1900080448054900684968EF
:100FF000044AC1F3C221515CC8407047240000205C
:1010000000100240EC1900080E4A51680E4801F029
:101010000C03042B11D0082B0FD10C48C1F38343D0
:10102000C903C05C0AD55168084AC1F34041921E09
:10103000515C054A5043B0FBF1F070470449484306
:10104000704700000010024000127A00BA19000830
:1010500000093D002DE9F84F040070D02078C04D04
:10106000C00749D06868C0F38100012807D06868CC
:10107000C0F38100022809D16868C00306D528683A
:10108000800339D560680028E7D035E06068B0F5A6
:10109000803F0BD010B1B0F5A02F11D0286820F4FC
:1010A00080302860286820F4802002E0286840F41E
:1010B00080302860606890B1FFF78EFD06460AE038
:1010C000286840F480202860F0E700BFFFF784FD27
:1010D000801B642873D828688003F7D50CE0FFF7DD
:1010E0007BFD064605E000BFFFF776FD801B642808
:1010F000F0D828688003F7D420789A4E80074FF004
:1011000001094FF0000839D5686810F00C0F07D0BE
:101110006868C0F38100022809D16868C00306D45A
:101120002868800714D52069012808D110E02069BB
:10113000B0B1C6F80090FFF74FFD074605E00AE1A1
:10114000FFF74AFDC01B0228C4D828688007F7D5DE
:101150002868616920F0F80040EAC10028600DE0CD
:10116000C6F80080FFF738FD074604E0FFF734FDBE
:10117000C01B022823D828688007F7D420780007EE
:101180002CD57948A169D9B1C0F80090FFF724FDAA
:10119000074604E0FFF720FDC01B02280FD8686A4D
:1011A0008007F7D571484FF4FA510068B0FBF1F0B1
:1011B000009000BF0098411E0091FAD20EE080E03E
:1011C000C0F80080FFF708FD074604E0FFF704FDC4
:1011D000C01B022875D8686A8007F7D420784007BA
:1011E00060D5E8690027C00008D4E86940F0805065
:1011F000E861E869012700F0805000905C480168D0
:10120000C90513D40168834641F480710160FFF77A
:10121000E3FC824606E000BFFFF7DEFCA0EB0A001D
:1012200064284ED8DBF80000C005F5D5E068012839
:101230000AD008B1052813D0286A20F001002862DE
:10124000286A20F0040002E0286A40F001002862C9
:10125000E06841F2883B98B1FFF7BEFC82460BE0A4
:10126000286A40F004002862EEE700BFFFF7B4FCF4
:10127000A0EB0A0159455AD8286A8007F6D50CE038
:10128000FFF7AAFC824605E0FFF7A6FCA0EB0A01E7
:1012900059454CD8286A8007F6D41FB1E86920F078
:1012A0008050E861E06988B36968C1F3810102296F
:1012B00044D00228C6F8608004D0FFF78DFC0446B5
:1012C00038E034E0FFF788FC074604E0FFF784FCD1
:1012D000C01B02282BD828688001F7D4206AB0F5FB
:1012E000803F05D16868A16820F400300843686039
:1012F000D4E908010843696821F47411084368605F
:10130000C6F86090FFF768FC044606E025E000BFE1
:10131000FFF762FC001B022809D828688001F7D576
:101320001BE000BFFFF758FC001B022802D9032076
:10133000BDE8F88F28688001F4D40EE00128F7D0CA
:101340006868226A00F48031914204D1616A00F435
:101350007010884201D00120EAE70020E8E7000091
:10136000001002400000424280044242240000205B
:101370000070004010B5401EB0F1807F01D3012005
:1013800010BD4FF0E02460610F21601700F0B2FA49
:101390000020A06107202061002010BD70B504006E
:1013A00004D094F84100002510B106E0012070BD82
:1013B00084F84050204600F023F8242084F84100AF
:1013C0002068C16821F40051C160204600F0FCF99A
:1013D0002068016921F4904101612068416921F090
:1013E0002A0141612068C16841F40051C16065640F
:1013F000202084F8410084F842006563002070BD1D
:1014000030B585B0002400940194029403940068E0
:101410001449884224D11448C16941F48021C16132
:10142000C16901F480210491816941F00801816161
:1014300080690E4D00F0080004904FF48060009029
:10144000022001900320039069462846FFF7C2FA64
:10145000E814CDE90004694628460294FFF7BAFA79
:1014600005B030BD0048004000100240000C0140B3
:101470002DE9F843044690F84100984616460D467B
:10148000202802D00220BDE8F88385B17EB100207B
:101490006064212084F84100FFF79EFBA68481460A
:1014A000E684A0682027B0F5805F02D003E0012029
:1014B000E9E7206910B12E4600250EE000260CE079
:1014C0008021204600F0DCF9A8B9C6B116F8010B5E
:1014D00021684860E08C401EE084E08C4B464FF071
:1014E0000002CDF800800028EAD14FF040012046EC
:1014F00000F0C6F940B184F841700320C3E735F825
:10150000020BC0F30800E3E784F841700020BAE75B
:10151000FEE700003EB500241048009401940294B8
:101520000D498460016004730475012505614FF461
:1015300060214460C161FFF745F808B1FEF752FF32
:10154000CDE90045694605480294FEF7B9FF002839
:1015500001D0FEF747FF3EBD0024014044000020BB
:101560002DE9F04385B00020009001900290039097
:101570002B48816941F020018161816901F02001DE
:101580000491816941F010018161816901F01001CC
:101590000491816941F004018161816901F00401D4
:1015A0000491816941F00801816180691D4F00F05B
:1015B00008004FF470440490012221463846FFF79A
:1015C00005FBDFF864804FF4FE55012229464046B2
:1015D000FFF7FCFADFF854904FF4F8560122314639
:1015E0004846FFF7F3FA00940124019402946946F7
:1015F00038460394FFF7EEF9CDE9005402946946AA
:1016000040460394FFF7E6F9CDE900640294694689
:1016100048460394FFF7DEF905B0BDE8F08300000B
:1016200000100240000C0140001001400008014081
:101630000C4810B50A4901604FF4E13141600021C6
:1016400081600C22C160C0E904128161C161FFF7B1
:10165000A5FE002803D0BDE81040FEF7C3BE10BDB4
:101660000048004074000020FEE7FEE77047704726
:101670001E480A2101701E490A88130A43708270AD
:101680004A88130AC37002718A88130A43718271EF
:10169000CA88130AC37102720A89130A43728272DA
:1016A0004A89130AC37202738A89130A43738273C5
:1016B000CA89130AC37302740A8A130A43748274B0
:1016C0004A8A130AC37402758A8A130A437582759B
:1016D000C98A4FF0FF330A0AC27501760B214176A1
:1016E00001461A220348FFF7C3BE0000280000206D
:1016F0000000002074000020FFF774BA30B595B0E8
:1017000028216846FEF782FD14210AA8FEF77EFD17
:1017100018210FA8FEF77AFD01210804CDE9001079
:101720000025029502240491CDE907404FF4E01012
:1017300009906846FFF78EFC08B172B6FEE70AA969
:101740000F2081E831004FF48060CDE90D050221C2
:101750000AA8FFF7A3FB08B172B6FEE74FF40040FA
:1017600011900F940FA8FFF723FB002801D072B649
:10177000FEE715B030BD704701680C3151E8002F0D
:1017800022F4907241E80023002BF5D10168143156
:1017900051E8002F22F0010241E80023002BF5D18F
:1017A000016B012909D101680C3151E8002F22F0A9
:1017B000100241E80023002BF5D1202180F84210CF
:1017C000002101637047000070B50446006801699C
:1017D000E26821F44051114301612169A068084386
:1017E000616908432168CA6841F20C639A43024365
:1017F000CA6020684169A26921F4407111434161C6
:101800001E492068884202D1FFF7EEFB01E0FFF796
:10181000DBFB00EBC00101EB00126068642180007B
:10182000B2FBF0F3B3FBF1F36FF018067343B2FBB6
:10183000F0F5B2FBF0F605EB8305322303EB05155B
:10184000B5FBF1F5B6FBF1F605F0F00505EB061575
:10185000B2FBF0F6B2FBF0F0B0FBF1F06FF0180263
:10186000504306EB800003EB0010B0FBF1F0216861
:1018700000F00F002844886070BD0000003801406F
:101880002DE9F843984617460D460446089E24E085
:10189000701C22D0FFF7A0F9A0EB0800B0421AD8C4
:1018A000CEB12068C168490717D5802D15D0402DCD
:1018B00013D00168C94309070FD4016800254068A7
:1018C00000902046FFF758FF0820606484F84050DD
:1018D0000120BDE8F8830320FBE72068006835EAB3
:1018E000000004D00020B842D2D00020F1E701204F
:1018F000F9E7FEE70907090E002804DB00F1E02004
:1019000080F80014704700F00F0000F1E02080F82C
:10191000141D7047FFF76EF9FFF7F0FEFFF720FE8A
:10192000FFF7F8FDFFF784FE2148FEF75DFD204834
:10193000FEF7C4FF1F4C1E48FEF7C0FF0020FEF755
:1019400033FD20800120FEF72FFD60800220FEF78E
:101950002BFDA0800320FEF727FDE0800420FEF78A
:1019600023FD20810520FEF71FFD60810620FEF784
:101970001BFDA0810720FEF717FDE0810820FEF780
:1019800013FD20820920FEF70FFD60820A20FEF77A
:101990000BFDA0820B20FEF707FDE0820448FEF756
:1019A000EDFFFFF765FE6420FFF702F8C3E70000D4
:1019B0004400002000000020010202030405060785
:1019C00008090A0B0C0D0E0F10100102020304058A
:1019D000060708090A0B0C0D0E0F1010000000007E
:1019E00000000000010203040607080900000000CF
:1019F00001020304141A000800000020280000005F
:101A00006C0100083C1A000828000020F8060000BD
:101A10008801000800000000000000000000000035
:101A200000000000000000000000000001000000B5
:0C1A3000100000000000000000127A000E
:0400000508000131BD
:00000001FF
